:020000040800F2
:1000000080060020E9080008AD0700089D070008E9
:10001000A1070008A5070008A907000800000000C4
:10002000000000000000000000000000B107000810
:10003000B507000800000000B90700089901000892
:100040000309000803090008030900080309000860
:100050000309000803090008030900080309000850
:100060000309000803090008030900080309000840
:100070000309000803090008030900080309000830
:100080000309000803090008030900080309000820
:100090000309000803090008030900080309000810
:1000A0000309000803090008030900080309000800
:1000B00003090008030900080309000803090008F0
:1000C00003090008030900080309000803090008E0
:1000D00003090008030900080309000803090008D0
:1000E00003090008030900080309000800F002F8EA
:1000F00000F042F814A696E8000CB244B344DA4586
:1001000001D100F039F8BAE80F000FA696E83000E8
:10011000A5EB040504EB0607AAEB0704A7F101070A
:100120004FEA15154FEA3414A4F10104AC4201D38F
:1001300000F022F813F0010F18BFFB1A43F001037F
:1001400000F001F8DBE718475C0800006C080000CD
:10015000704700000023002400250026103A28BF25
:1001600078C1FBD8520728BF30C148BF0B60704729
:100170001FB51FBD10B510BD00F0D9FB1146FFF72C
:10018000F7FF00F059F800F0F7FB03B4FFF7F2FFB8
:1001900003BC00F0FFFB000040F27801C2F2000156
:1001A000086801300860704741F20001C4F20201A2
:1001B000086840F480300860FFE741F20000C4F2B4
:1001C000020000688003002801D4FFE7F5E741F250
:1001D0000401C4F20201086820F474100860086881
:1001E00040F4E810086041F20001C4F2020108681E
:1001F00040F080700860FFE741F20000C4F20200A6
:1002000000688001002801D4FFE7F5E741F204010E
:10021000C4F202010868022262F301000860FFE7ED
:1002200041F20400C4F20200006800F0030002285A
:1002300001D0FFE7F4E7704780B584B0002001905B
:10024000039000F045F8019802904FF4FA7000F026
:10025000E3F800F0FFF8642000F00EF900F01EF95A
:10026000FFE700F055F900F071F940F27000C2F2BA
:1002700000000068032803D1FFE700F075FA25E0CD
:1002800040F27000C2F20000006806280ED1FFE7BD
:1002900000F074FA0299401A642806D3FFE700F0D0
:1002A0006DFA029000F070FAFFE70EE000F066FAD7
:1002B0000299401AB0F57A7F06D3FFE700F05EFAA4
:1002C000029000F061FAFFE7FFE7FFE7C9E700BF30
:1002D00041F21801C4F20201086840F01C000860F5
:1002E00041F21C01C4F20201086840F002000860FB
:1002F00040F60002C4F20102106820F00F00106006
:10030000106840F00800106040F60C01C4F20101D2
:10031000086840F001000860106820F0706010600C
:10032000106840F03060106010684FF6FF73C0F640
:100330000F731840106010680023C3F23003184395
:100340001060086820F0A000086040F60441C4F284
:100350000101086820F0FF000860086840F03300E1
:10036000086040F60C41C4F20101086820F44050D6
:10037000086041F20401C4F20101086820F4700031
:100380000860086840F44010086041F20C01C4F2B3
:100390000101086840F40050086040F22841C4F2AE
:1003A00000014720086040F22C41C4F2000144F6ED
:1003B0001F60086040F21841C4F200016820086024
:1003C00040F22041C4F200010120086040F23441B3
:1003D000C4F2000140F2DC50086040F20041C4F277
:1003E0000001086840F0810008604EF21401CEF26E
:1003F000000141F63F10C0F2010008604EF2180102
:10040000CEF20001002008604EF21001CEF2000191
:1004100007200860704700BF81B00090009840F24C
:100420002A71884204D3FFE740F229700090FFE769
:10043000009880087C2804D8FFE74FF4FA700090F9
:10044000FFE7009840F23441C4F20001086001B0B7
:10045000704700BF40F60C41C4F20101086820F467
:100460004050086040F60C01C4F20101086820F019
:10047000A0000860704700BF80B582B0019000F016
:100480007DF90090FFE700F079F90099401A019991
:10049000884201D2FFE7F6E702B080BD80B543F2A3
:1004A0000001C4F2000145F25550086043F2040116
:1004B000C4F200010420086043F20801C4F2000104
:1004C0004FF47A700860FFE743F20C00C4F20000BA
:1004D0000068C00708B1FFE7F6E7FFE743F20C004A
:1004E000C4F2000000688007002801D5FFE7F5E7A7
:1004F00043F20001C4F200014CF6CC40086000F069
:100500003DF940F26401C2F20001086080BD00BF05
:1005100080B500F033F940F26401C2F200010968CD
:10052000401AB0F5C87F0FD3FFE743F20001C4F2D1
:1005300000014AF6AA20086000F020F940F26401A8
:10054000C2F200010860FFE780BD00BF80B586B041
:1005500040F27000C2F2000000680190062800F22C
:10056000C8800199DFE801F0040F38457EA6C40079
:10057000FFF770FF00F022F920B1FFE7012000F043
:1005800053F9FFE7EEE000F061F900F079F941F28C
:100590008831884206D3FFE7FFF75CFF062000F0B2
:1005A00043F918E000F00AF930B9FFE7FFF752FF0E
:1005B000002000F039F90DE000F062F940F6B831A2
:1005C000884206D3FFE7FFF745FF022000F02CF931
:1005D000FFE7FFE7FFE7C5E0FFF73CFF00F050F95A
:1005E000B0F5FA7F04D3FFE7032000F01DF9FFE721
:1005F000B8E000F045F940F6C311884216D8FFE78D
:1006000000F03EF9059005984FF47A71484341F2A5
:100610005971CDF2B711A0FB01014FF4FA7000EB54
:10062000D12004900498FFF7F7FE1AE040F2DC5066
:10063000FFF7F2FE00F0C2F820B9FFE7042000F057
:10064000F3F80DE000F01CF947F24071C0F21B0115
:10065000884204D3FFE7042000F0E6F8FFE7FFE755
:10066000FFE77FE0FFF7F6FE00F00AF940F6C3115E
:10067000884216D8FFE700F003F9039003984FF47F
:100680007A71484341F25971CDF2B711A0FB0101D3
:1006900040F2DC50A0EBD12002900298FFF7BCFEA4
:1006A00007E04FF4FA70FFF7B7FE052000F0BCF842
:1006B000FFE757E000F0EEF800F0E2F841F2883191
:1006C000884206D3FFE7FFF7C5FE062000F0ACF82E
:1006D0000DE000F0D5F840F6B831884206D3FFE7C8
:1006E000FFF7B8FE002000F09FF8FFE7FFE739E0D2
:1006F000FFE7FFF7AFFE4FF4FA70FFF78DFE00F053
:100700005DF838BBFFE740F26000C2F2000000680D
:1007100040B9FFE700F032F840F26001C2F2000198
:10072000086016E000F02AF840F26001C2F2000111
:100730000968401A40F6B831884209D3FFE740F211
:100740006001C2F200010020086000F06DF8FFE7D0
:10075000FFE706E040F26001C2F2000100200860FD
:10076000FFE7FFE706B080BD41F20C01C4F20101D2
:10077000086820F400500860704700BF40F278001D
:10078000C2F200000068704741F20C01C4F201019E
:10079000086880F400500860704700BFFFE7FEE77C
:1007A000FFE7FEE7FFE7FEE7FFE7FEE7FFE7FEE71D
:1007B000704700BF704700BF704700BF80B582B070
:1007C00000F082F80090009840F26C01C2F2000143
:1007D0000968884210D0FFE7009840F26C01C2F22D
:1007E00000010860FFF7CAFF40F26801C2F2000191
:1007F00008600020019013E0009870B1FFE7FFF758
:10080000BDFF40F26801C2F200010968401A1E28CB
:1008100003D3FFE70120019002E000200190FFE7F1
:10082000019802B080BD00BF80B582B001900198F0
:1008300040F27001C2F200010860FFF79FFF40F232
:100840007401C2F20001086002B080BD40F60C41A4
:10085000C4F20101086840F480500860086820F480
:100860000050086040F60C01C4F20101086840F035
:1008700080000860086820F020000860704700BF12
:1008800080B5FFF77BFF40F27401C2F200010968F6
:10089000401A80BD40F60C41C4F20101086820F402
:1008A00080500860086840F40050086040F60C0171
:1008B000C4F20101086820F080000860086840F078
:1008C00020000860704700BF80B500F005F80138CF
:1008D000B0FA80F0400980BD40F60800C4F2010083
:1008E000006800F001007047094880470948004748
:1008F000FEE7FEE7FEE7FEE7FEE7FEE7FEE7FEE7D0
:10090000FEE7FEE704480549054A064B704700002C
:10091000A9010008ED0000088000002080060020EA
:1009200080020020800200207047704770477546A3
:1009300000F02CF8AE4605006946534620F007004B
:10094000854618B020B5FFF7DDFFBDE820404FF029
:1009500000064FF000074FF000084FF0000BAC46C8
:10096000ACE8C009ACE8C009ACE8C009ACE8C00913
:1009700021F007018D46704710B50446AFF30080A3
:100980002046BDE81040FFF700BC0000004870475B
:100990000000002001491820ABBEFEE7260002003F
:1009A00070470000B4090008000000208006000025
:0409B00054010008E6
:04000005080000ED02
:00000001FF
