:020000040800F2
:1000000078060020550800081907000809070008AD
:100010000D07000811070008150700080000000080
:100020000000000000000000000000001D070008A4
:1000300021070008000000002507000899010008BA
:100040006F0800086F0800086F0800086F080008B4
:100050006F0800086F0800086F0800086F080008A4
:100060006F0800086F0800086F0800086F08000894
:100070006F0800086F0800086F0800086F08000884
:100080006F0800086F0800086F0800086F08000874
:100090006F0800086F0800086F0800086F08000864
:1000A0006F0800086F0800086F0800086F08000854
:1000B0006F0800086F0800086F0800086F08000844
:1000C0006F0800086F0800086F0800086F08000834
:1000D0006F0800086F0800086F0800086F08000824
:1000E0006F0800086F0800086F08000800F002F8A9
:1000F00000F042F814A696E8000CB244B344DA4586
:1001000001D100F039F8BAE80F000FA696E83000E8
:10011000A5EB040504EB0607AAEB0704A7F101070A
:100120004FEA15154FEA3414A4F10104AC4201D38F
:1001300000F022F813F0010F18BFFB1A43F001037F
:1001400000F001F8DBE71847C8070000D8070000F7
:10015000704700000023002400250026103A28BF25
:1001600078C1FBD8520728BF30C148BF0B60704729
:100170001FB51FBD10B510BD00F08FFB1146FFF776
:10018000F7FF00F059F800F0ADFB03B4FFF7F2FF02
:1001900003BC00F0B5FB000040F27401C2F20001A4
:1001A000086801300860704741F20001C4F20201A2
:1001B000086840F480300860FFE741F20000C4F2B4
:1001C000020000688003002801D4FFE7F5E741F250
:1001D0000401C4F20201086820F474100860086881
:1001E00040F4E810086041F20001C4F2020108681E
:1001F00040F080700860FFE741F20000C4F20200A6
:1002000000688001002801D4FFE7F5E741F204010E
:10021000C4F202010868022262F301000860FFE7ED
:1002200041F20400C4F20200006800F0030002285A
:1002300001D0FFE7F4E7704780B584B0002001905B
:10024000039000F041F8019802904FF4FA7000F02A
:10025000DFF800F0FBF8642000F00AF9FFE700F097
:1002600019F940F26C00C2F200000068032803D1C3
:10027000FFE700F02FFA25E040F26C00C2F2000028
:10028000006806280ED1FFE700F02EFA0299401A06
:10029000642806D3FFE700F027FA029000F02AFA5C
:1002A000FFE70EE000F020FA0299401AB0F57A7FDD
:1002B00006D3FFE700F018FA029000F01BFAFFE700
:1002C000FFE7FFE7CBE700BF41F21801C4F20201EC
:1002D000086840F01C00086041F21C01C4F20201F1
:1002E000086840F00200086040F60002C4F2010213
:1002F000106820F00F001060106840F008001060D7
:1003000040F60C01C4F20101086840F001000860E9
:10031000106820F070601060106840F0306010606D
:1003200010684FF6FF73C0F60F7318401060106826
:100330000023C3F2300318431060086820F0A000C7
:10034000086040F60441C4F20101086820F0FF0093
:100350000860086840F03300086040F60C41C4F2C1
:100360000101086820F44050086041F20401C4F221
:100370000101086820F470000860086840F440102B
:10038000086041F20C01C4F20101086840F4005019
:10039000086040F22841C4F200014720086040F2A2
:1003A0002C41C4F2000144F61F60086040F218417D
:1003B000C4F200016820086040F22041C4F200014C
:1003C0000120086040F23441C4F2000140F2DC50E8
:1003D000086040F20041C4F20001086840F081006A
:1003E00008604EF21401CEF2000141F63F10C0F257
:1003F000010008604EF21801CEF2000100200860F2
:100400004EF21001CEF2000107200860704700BFD5
:1004100081B00090009840F22A71884204D3FFE72F
:1004200040F229700090FFE7009880087C2804D8EB
:10043000FFE74FF4FA700090FFE7009840F2344174
:10044000C4F20001086001B0704700BF40F60C41E3
:10045000C4F20101086820F44050086040F60C0125
:10046000C4F20101086820F0A0000860704700BFD6
:1004700080B582B0019000F037F90090FFE700F0FE
:1004800033F90099401A0199884201D2FFE7F6E753
:1004900002B080BD80B588B040F26C00C2F20000AE
:1004A00000680090062800F2D9800099DFE801F08A
:1004B000040F384584B7D500FFF7C8FF00F034F9C2
:1004C00020B1FFE7012000F065F9FFE7FFE000F051
:1004D00073F900F08BF941F28831884206D3FFE7C7
:1004E000FFF7B4FF062000F055F918E000F01CF902
:1004F00030B9FFE7FFF7AAFF002000F04BF90DE04D
:1005000000F074F940F6B831884206D3FFE7FFF7F0
:100510009DFF022000F03EF9FFE7FFE7FFE7D6E08E
:10052000FFF794FF00F062F9B0F5FA7F04D3FFE71C
:10053000032000F02FF9FFE7C9E000F057F941F27E
:100540006F7188421CD8FFE700F050F907900798B8
:10055000404341F6F111C0F27651A0FB0120C009E1
:10056000069006984FF47A725043A0FB01014FF4B5
:10057000FA7000EBD11005900598FFF749FF1AE0DB
:1005800040F2DC50FFF744FF00F0CEF820B9FFE75F
:10059000042000F0FFF80DE000F028F947F2407168
:1005A000C0F21B01884204D3FFE7042000F0F2F8F8
:1005B000FFE7FFE7FFE78AE0FFF748FF00F016F9E3
:1005C00041F26F71884221D8FFE700F00FF90490E3
:1005D000049941F27070401A03900398404341F629
:1005E000F111C0F27651A0FB0120C00902900298DF
:1005F0004FF47A725043A0FB01014FF4FA7000EB04
:10060000D11001900198FFF703FF07E04FF4FA7053
:10061000FFF7FEFE052000F0BDF8FFE757E000F011
:10062000EFF800F0E3F841F28831884206D3FFE7A3
:10063000FFF70CFF062000F0ADF80DE000F0D6F853
:1006400040F6B831884206D3FFE7FFF7FFFE0020EF
:1006500000F0A0F8FFE7FFE739E0FFE7FFF7F6FE5D
:100660004FF4FA70FFF7D4FE00F05EF838BBFFE7F6
:1006700040F26000C2F20000006840B9FFE700F0FD
:1006800033F840F26001C2F20001086016E000F0A9
:100690002BF840F26001C2F200010968401A40F6EE
:1006A000B831884209D3FFE740F26001C2F200018D
:1006B0000020086000F06EF8FFE7FFE706E040F278
:1006C0006001C2F2000100200860FFE7FFE708B008
:1006D00080BD00BF41F20C01C4F20101086820F4A2
:1006E00000500860704700BF40F27400C2F2000082
:1006F0000068704741F20C01C4F20101086880F4FF
:1007000000500860704700BFFFE7FEE7FFE7FEE725
:10071000FFE7FEE7FFE7FEE7FFE7FEE7704700BF02
:10072000704700BF704700BF80B582B000F082F80C
:100730000090009840F26801C2F200010968884206
:1007400010D0FFE7009840F26801C2F20001086093
:10075000FFF7CAFF40F26401C2F200010860002006
:10076000019013E0009870B1FFE7FFF7BDFF40F282
:100770006401C2F200010968401A1E2803D3FFE792
:100780000120019002E000200190FFE7019802B0F3
:1007900080BD00BF80B582B00190019840F26C012D
:1007A000C2F200010860FFF79FFF40F27001C2F241
:1007B0000001086002B080BD40F60C41C4F20101A6
:1007C000086840F480500860086820F40050086011
:1007D00040F60C01C4F20101086840F08000086096
:1007E000086820F020000860704700BF80B5FFF760
:1007F0007BFF40F27001C2F200010968401A80BD1F
:1008000040F60C41C4F20101086820F480500860F1
:10081000086840F40050086040F60C01C4F2010181
:10082000086820F080000860086840F02000086038
:10083000704700BF80B500F005F80138B0FA80F0CD
:10084000400980BD40F60800C4F20100006800F0D5
:10085000010070470948804709480047FEE7FEE766
:10086000FEE7FEE7FEE7FEE7FEE7FEE7FEE7FEE760
:1008700004480549054A064B70470000A9010008D5
:10088000ED000008780000207806002078020020A3
:1008900078020020704770477047754600F02CF8CA
:1008A000AE4605006946534620F00700854618B05D
:1008B00020B5FFF7DDFFBDE820404FF000064FF008
:1008C00000074FF000084FF0000BAC46ACE8C00941
:1008D000ACE8C009ACE8C009ACE8C00921F00701E8
:1008E0008D46704710B50446AFF300802046BDE842
:1008F0001040FFF74ABC000000487047000000208D
:1009000001491820ABBEFEE7260002007047000038
:1009100020090008000000207806000054010008AB
:04000005080000ED02
:00000001FF
