:020000040800F2
:1000000078060020E9070008BD060008AD060008D4
:10001000B1060008B5060008B90600080000000097
:10002000000000000000000000000000C106000801
:10003000C506000800000000C90600089901000874
:100040000308000803080008030800080308000864
:100050000308000803080008030800080308000854
:100060000308000803080008030800080308000844
:100070000308000803080008030800080308000834
:100080000308000803080008030800080308000824
:100090000308000803080008030800080308000814
:1000A0000308000803080008030800080308000804
:1000B00003080008030800080308000803080008F4
:1000C00003080008030800080308000803080008E4
:1000D00003080008030800080308000803080008D4
:1000E00003080008030800080308000800F002F8ED
:1000F00000F042F814A696E8000CB244B344DA4586
:1001000001D100F039F8BAE80F000FA696E83000E8
:10011000A5EB040504EB0607AAEB0704A7F101070A
:100120004FEA15154FEA3414A4F10104AC4201D38F
:1001300000F022F813F0010F18BFFB1A43F001037F
:1001400000F001F8DBE718475C0700006C070000CF
:10015000704700000023002400250026103A28BF25
:1001600078C1FBD8520728BF30C148BF0B60704729
:100170001FB51FBD10B510BD00F059FB1146FFF7AC
:10018000F7FF00F031F800F077FB03B4FFF7F2FF60
:1001900003BC00F07FFB000040F27401C2F20001DA
:1001A000086801300860704741F20001C4F20201A2
:1001B000086820F080700860086840F0010008605E
:1001C00041F20401C4F20201086820F00300086053
:1001D000FFE741F20400C4F202000068800708B1A2
:1001E000FFE7F6E7704700BF80B584B000200190BC
:1001F000039000F041F8019802904FF4FA7000F07B
:10020000E1F800F0FDF8642000F004F9FFE700F0E9
:1002100013F940F26C00C2F200000068032803D119
:10022000FFE700F029FA25E040F26C00C2F200007E
:10023000006806280ED1FFE700F028FA0299401A5C
:10024000642806D3FFE700F021FA029000F024FAB8
:10025000FFE70EE000F01AFA0299401AB0F57A7F33
:1002600006D3FFE700F012FA029000F015FAFFE75C
:10027000FFE7FFE7CBE700BF41F21801C4F202013C
:10028000086840F01C00086041F21C01C4F2020141
:10029000086840F00200086040F60002C4F2010263
:1002A000106820F00F001060106840F00800106027
:1002B00040F60C01C4F20101086840F0010008603A
:1002C000106820F070601060106840F030601060BE
:1002D00010684FF6FF73C0F60F7318401060106877
:1002E0000023C3F2300318431060086820F0A00018
:1002F0000860106820F47F601060106840F44C7053
:100300001060086820F00600086041F20401C4F2A1
:100310000101086820F470000860086840F440108B
:10032000086041F20C01C4F20101086840F4005079
:10033000086040F22841C4F2000107200860096803
:100340004A1C41F20021C0F27A01B1FBF2F14BF6F6
:100350005202C0F21E52A1FB0221013940F22C428E
:10036000C4F20002116040F21842C4F20002682197
:10037000116040F22042C4F200020121116040F2FB
:100380003442C4F2000240F2DC51116040F20042FB
:10039000C4F20002116841F0810111604EF21402B2
:1003A000CEF2000241F63F7111604EF21802CEF219
:1003B0000002002111604EF21001CEF2000108602F
:1003C000704700BF81B00090009840F22A718842C7
:1003D00004D3FFE740F229700090FFE700988008FF
:1003E0007C2804D8FFE74FF4FA700090FFE70098EC
:1003F00040F23441C4F20001086001B0704700BF10
:1004000040F60C01C4F20101086820F0A600086063
:10041000704700BF80B582B0019000F037F90090BE
:10042000FFE700F033F90099401A0199884201D2A0
:10043000FFE7F6E702B080BD80B588B040F26C00FF
:10044000C2F2000000680090062800F2D9800099EE
:10045000DFE801F0040F384584B7D500FFF7D0FF7F
:1004600000F034F920B1FFE7012000F065F9FFE763
:10047000FFE000F073F900F087F941F2883188421B
:1004800006D3FFE7FFF7BCFF062000F055F918E0A0
:1004900000F01CF930B9FFE7FFF7B2FF002000F0D1
:1004A0004BF90DE000F070F940F6B831884206D300
:1004B000FFE7FFF7A5FF022000F03EF9FFE7FFE7A7
:1004C000FFE7D6E0FFF79CFF00F05EF9B0F5FA7F9A
:1004D00004D3FFE7032000F02FF9FFE7C9E000F0A5
:1004E00053F941F26F7188421CD8FFE700F04CF9D4
:1004F00007900798404341F6F111C0F27651A0FBF6
:100500000120C009069006984FF47A725043A0FB70
:1005100001014FF4FA7000EBD11005900598FFF738
:1005200051FF1AE040F2DC50FFF74CFF00F0CEF82C
:1005300020B9FFE7042000F0FFF80DE000F024F9F7
:1005400047F24071C0F21B01884204D3FFE7042048
:1005500000F0F2F8FFE7FFE7FFE78AE0FFF750FF60
:1005600000F012F941F26F71884221D8FFE700F0E4
:100570000BF90490049941F27070401A03900398AB
:10058000404341F6F111C0F27651A0FB0120C009B1
:10059000029002984FF47A725043A0FB01014FF48D
:1005A000FA7000EBD11001900198FFF70BFF07E004
:1005B0004FF4FA70FFF706FF052000F0BDF8FFE7E3
:1005C00057E000F0EBF800F0DFF841F288318842A4
:1005D00006D3FFE7FFF714FF062000F0ADF80DE0AB
:1005E00000F0D2F840F6B831884206D3FFE7FFF7B3
:1005F00007FF002000F0A0F8FFE7FFE739E0FFE782
:10060000FFF7FEFE4FF4FA70FFF7DCFE00F05EF835
:1006100038BBFFE740F26000C2F20000006840B95A
:10062000FFE700F033F840F26001C2F20001086019
:1006300016E000F02BF840F26001C2F200010968F8
:10064000401A40F6B831884209D3FFE740F2600112
:10065000C2F200010020086000F06EF8FFE7FFE73B
:1006600006E040F26001C2F2000100200860FFE7EE
:10067000FFE708B080BD00BF41F20C01C4F20101E8
:10068000086820F400500860704700BF40F2740012
:10069000C2F200000068704741F20C01C4F201018F
:1006A000086880F400500860704700BFFFE7FEE76D
:1006B000FFE7FEE7FFE7FEE7FFE7FEE7FFE7FEE70E
:1006C000704700BF704700BF704700BF80B582B061
:1006D00000F07AF80090009840F26801C2F2000140
:1006E0000968884210D0FFE7009840F26801C2F222
:1006F00000010860FFF7CAFF40F26401C2F2000186
:1007000008600020019013E0009870B1FFE7FFF748
:10071000BDFF40F26401C2F200010968401A1E28C0
:1007200003D3FFE70120019002E000200190FFE7E2
:10073000019802B080BD00BF80B582B001900198E1
:1007400040F26C01C2F200010860FFF79FFF40F227
:100750007001C2F20001086002B080BD40F60C01D9
:10076000C4F20101086840F002000860086820F047
:1007700004000860086840F080000860086820F005
:1007800020000860704700BF80B5FFF77FFF40F290
:100790007001C2F200010968401A80BD40F60C01E8
:1007A000C4F20101086820F002000860086840F007
:1007B00004000860086820F080000860086840F0C5
:1007C00020000860704700BF80B500F005F80138D0
:1007D000B0FA80F0400980BD40F60800C4F2010084
:1007E000006800F001007047094880470948004749
:1007F000FEE7FEE7FEE7FEE7FEE7FEE7FEE7FEE7D1
:10080000FEE7FEE704480549054A064B704700002D
:10081000A9010008ED0000087800002078060020FB
:1008200078020020780200207047704770477546B4
:1008300000F02CF8AE4605006946534620F007004C
:10084000854618B020B5FFF7DDFFBDE820404FF02A
:1008500000064FF000074FF000084FF0000BAC46C9
:10086000ACE8C009ACE8C009ACE8C009ACE8C00914
:1008700021F007018D46704710B50446AFF30080A4
:100880002046BDE81040FFF780BC000000487047DC
:100890000000002001491820ABBEFEE72600020040
:1008A00070470000B408000800000020780600002F
:0408B00054010008E7
:04000005080000ED02
:00000001FF
